{
  "contractName": "VaultContract",
  "abi": [
    {
      "anonymous": false,
      "inputs": [
        {
          "indexed": true,
          "internalType": "uint256",
          "name": "vaultId",
          "type": "uint256"
        },
        {
          "indexed": true,
          "internalType": "uint256",
          "name": "fileIdx",
          "type": "uint256"
        },
        {
          "indexed": true,
          "internalType": "address",
          "name": "deleter",
          "type": "address"
        }
      ],
      "name": "FileDeleted",
      "type": "event"
    },
    {
      "anonymous": false,
      "inputs": [
        {
          "indexed": true,
          "internalType": "uint256",
          "name": "vaultId",
          "type": "uint256"
        },
        {
          "indexed": true,
          "internalType": "uint256",
          "name": "fileIdx",
          "type": "uint256"
        },
        {
          "indexed": false,
          "internalType": "string",
          "name": "cid",
          "type": "string"
        },
        {
          "indexed": true,
          "internalType": "address",
          "name": "uploader",
          "type": "address"
        }
      ],
      "name": "FileUploaded",
      "type": "event"
    },
    {
      "anonymous": false,
      "inputs": [
        {
          "indexed": true,
          "internalType": "uint256",
          "name": "id",
          "type": "uint256"
        },
        {
          "indexed": false,
          "internalType": "string",
          "name": "name",
          "type": "string"
        },
        {
          "indexed": true,
          "internalType": "address",
          "name": "owner",
          "type": "address"
        }
      ],
      "name": "VaultCreated",
      "type": "event"
    },
    {
      "anonymous": false,
      "inputs": [
        {
          "indexed": true,
          "internalType": "uint256",
          "name": "id",
          "type": "uint256"
        },
        {
          "indexed": true,
          "internalType": "address",
          "name": "owner",
          "type": "address"
        }
      ],
      "name": "VaultDeleted",
      "type": "event"
    },
    {
      "inputs": [
        {
          "internalType": "uint256",
          "name": "",
          "type": "uint256"
        }
      ],
      "name": "vaults",
      "outputs": [
        {
          "internalType": "string",
          "name": "name",
          "type": "string"
        },
        {
          "internalType": "string",
          "name": "description",
          "type": "string"
        },
        {
          "internalType": "uint256",
          "name": "size",
          "type": "uint256"
        },
        {
          "internalType": "string",
          "name": "encryptionLevel",
          "type": "string"
        },
        {
          "internalType": "uint256",
          "name": "files",
          "type": "uint256"
        },
        {
          "internalType": "string",
          "name": "storageLimit",
          "type": "string"
        },
        {
          "internalType": "string",
          "name": "accessType",
          "type": "string"
        },
        {
          "internalType": "string",
          "name": "lastAccessed",
          "type": "string"
        },
        {
          "internalType": "address",
          "name": "owner",
          "type": "address"
        },
        {
          "internalType": "bool",
          "name": "exists",
          "type": "bool"
        }
      ],
      "stateMutability": "view",
      "type": "function"
    },
    {
      "inputs": [
        {
          "internalType": "string",
          "name": "_name",
          "type": "string"
        },
        {
          "internalType": "string",
          "name": "_description",
          "type": "string"
        },
        {
          "internalType": "uint256",
          "name": "_size",
          "type": "uint256"
        },
        {
          "internalType": "string",
          "name": "_encryptionLevel",
          "type": "string"
        },
        {
          "internalType": "uint256",
          "name": "_files",
          "type": "uint256"
        },
        {
          "internalType": "string",
          "name": "_storageLimit",
          "type": "string"
        },
        {
          "internalType": "string",
          "name": "_accessType",
          "type": "string"
        },
        {
          "internalType": "string",
          "name": "_lastAccessed",
          "type": "string"
        }
      ],
      "name": "createVault",
      "outputs": [],
      "stateMutability": "nonpayable",
      "type": "function"
    },
    {
      "inputs": [
        {
          "internalType": "uint256",
          "name": "_id",
          "type": "uint256"
        }
      ],
      "name": "getVault",
      "outputs": [
        {
          "internalType": "string",
          "name": "name",
          "type": "string"
        },
        {
          "internalType": "string",
          "name": "description",
          "type": "string"
        },
        {
          "internalType": "uint256",
          "name": "size",
          "type": "uint256"
        },
        {
          "internalType": "string",
          "name": "encryptionLevel",
          "type": "string"
        },
        {
          "internalType": "uint256",
          "name": "files",
          "type": "uint256"
        },
        {
          "internalType": "string",
          "name": "storageLimit",
          "type": "string"
        },
        {
          "internalType": "string",
          "name": "accessType",
          "type": "string"
        },
        {
          "internalType": "string",
          "name": "lastAccessed",
          "type": "string"
        },
        {
          "internalType": "address",
          "name": "owner",
          "type": "address"
        }
      ],
      "stateMutability": "view",
      "type": "function"
    },
    {
      "inputs": [],
      "name": "getVaultCount",
      "outputs": [
        {
          "internalType": "uint256",
          "name": "",
          "type": "uint256"
        }
      ],
      "stateMutability": "view",
      "type": "function"
    },
    {
      "inputs": [],
      "name": "getMyVaultIds",
      "outputs": [
        {
          "internalType": "uint256[]",
          "name": "",
          "type": "uint256[]"
        }
      ],
      "stateMutability": "view",
      "type": "function"
    },
    {
      "inputs": [
        {
          "internalType": "uint256",
          "name": "_id",
          "type": "uint256"
        }
      ],
      "name": "deleteVault",
      "outputs": [],
      "stateMutability": "nonpayable",
      "type": "function"
    },
    {
      "inputs": [
        {
          "internalType": "uint256",
          "name": "_vaultId",
          "type": "uint256"
        },
        {
          "internalType": "string",
          "name": "_cid",
          "type": "string"
        },
        {
          "internalType": "string",
          "name": "_name",
          "type": "string"
        },
        {
          "internalType": "uint256",
          "name": "_size",
          "type": "uint256"
        },
        {
          "internalType": "string",
          "name": "_mime",
          "type": "string"
        }
      ],
      "name": "uploadFile",
      "outputs": [],
      "stateMutability": "nonpayable",
      "type": "function"
    },
    {
      "inputs": [
        {
          "internalType": "uint256",
          "name": "_vaultId",
          "type": "uint256"
        },
        {
          "internalType": "uint256",
          "name": "_fileIdx",
          "type": "uint256"
        }
      ],
      "name": "deleteFile",
      "outputs": [],
      "stateMutability": "nonpayable",
      "type": "function"
    },
    {
      "inputs": [
        {
          "internalType": "uint256",
          "name": "_vaultId",
          "type": "uint256"
        },
        {
          "internalType": "uint256",
          "name": "_fileIdx",
          "type": "uint256"
        }
      ],
      "name": "getFile",
      "outputs": [
        {
          "internalType": "string",
          "name": "cid",
          "type": "string"
        },
        {
          "internalType": "string",
          "name": "name",
          "type": "string"
        },
        {
          "internalType": "uint256",
          "name": "size",
          "type": "uint256"
        },
        {
          "internalType": "string",
          "name": "mimeType",
          "type": "string"
        },
        {
          "internalType": "uint256",
          "name": "uploadedAt",
          "type": "uint256"
        },
        {
          "internalType": "address",
          "name": "owner",
          "type": "address"
        }
      ],
      "stateMutability": "view",
      "type": "function"
    },
    {
      "inputs": [
        {
          "internalType": "uint256",
          "name": "_vaultId",
          "type": "uint256"
        }
      ],
      "name": "getFileCount",
      "outputs": [
        {
          "internalType": "uint256",
          "name": "",
          "type": "uint256"
        }
      ],
      "stateMutability": "view",
      "type": "function"
    }
  ],
  "bytecode": "0x6080806040523461001657611684908161001b8239f35b5f80fdfe60806040526004361015610011575f80fd5b5f3560e01c80631813cc7d146111125780635a4749541461108f57806374d4e49114611073578063761805e51461103d57806386e60a5114610bd85780638c64ea4a14610abc5780639403b6341461099c578063a0e41a77146108cd578063a3f031491461082f5763daf03f6914610087575f80fd5b3461082b5761010036600319011261082b576004356001600160401b03811161082b576100b89036906004016112a9565b6024356001600160401b03811161082b576100d79036906004016112a9565b6064356001600160401b03811161082b576100f69036906004016112a9565b909160a4356001600160401b03811161082b576101179036906004016112a9565b92909160c4356001600160401b03811161082b576101399036906004016112a9565b909160e4356001600160401b03811161082b5761015a9036906004016112a9565b959096604051998a6101408101106001600160401b036101408d011117610526576101ee996101e2978c8f8f6101c2956101d6996101a76020946101b0946101408801604052369161145b565b8552369161145b565b91015260443560408e0152369161145b565b60608b015260843560808b0152369161145b565b60a0880152369161145b565b60c0850152369161145b565b60e08201523361010082015260016101208201525f54600160401b8110156105265780600161021f92015f556112d6565b6108185781518051906001600160401b03821161052657819061024c826102468654611323565b866114dc565b602090601f83116001146107b0575f926107a5575b50508160011b915f199060031b1c19161781555b60208201518051906001600160401b0382116105265781906102a78261029e6001870154611323565b600187016114dc565b602090601f8311600114610737575f9261072c575b50508160011b915f199060031b1c19161760018201555b6040820151600282015560608201518051906001600160401b03821161052657819061030f826103066003870154611323565b600387016114dc565b602090601f83116001146106be575f926106b3575b50508160011b915f199060031b1c19161760038201555b6080820151600482015560a08201518051906001600160401b0382116105265781906103778261036e6005870154611323565b600587016114dc565b602090601f8311600114610645575f9261063a575b50508160011b915f199060031b1c19161760058201555b60c08201518051906001600160401b0382116105265781906103d5826103cc6006870154611323565b600687016114dc565b602090601f83116001146105cc575f926105c1575b50508160011b915f199060031b1c19161760068201555b60e082015180516001600160401b03811161052657600783019161042f826104298554611323565b856114dc565b602090601f8311600114610559576008949392915f918361054e575b50508160011b915f199060031b1c19161790555b019060018060a01b036101008201511682549161012060ff60a01b910151151560a01b16916affffffffffffffffffffff60a81b16171790555f54905f19820191821161053a57335f52600260205260405f2090815490600160401b8210156105265760018201808455821015610512578361050d927f32bd478453ccf48561abe1c642c2fd28107058c63097cde429bf2a47993b1d9b945f5260205f20015560405191829133968361151f565b0390a3005b634e487b7160e01b5f52603260045260245ffd5b634e487b7160e01b5f52604160045260245ffd5b634e487b7160e01b5f52601160045260245ffd5b015190505f8061044b565b90601f19831691845f5260205f20925f5b8181106105a9575091600193918560089897969410610591575b505050811b01905561045f565b01515f1960f88460031b161c191690555f8080610584565b9293602060018192878601518155019501930161056a565b015190505f806103ea565b9250600684015f5260205f20905f935b601f198416851061061f576001945083601f19811610610607575b505050811b016006820155610401565b01515f1960f88460031b161c191690555f80806105f7565b818101518355602094850194600190930192909101906105dc565b015190505f8061038c565b9250600584015f5260205f20905f935b601f1984168510610698576001945083601f19811610610680575b505050811b0160058201556103a3565b01515f1960f88460031b161c191690555f8080610670565b81810151835560209485019460019093019290910190610655565b015190505f80610324565b9250600384015f5260205f20905f935b601f1984168510610711576001945083601f198116106106f9575b505050811b01600382015561033b565b01515f1960f88460031b161c191690555f80806106e9565b818101518355602094850194600190930192909101906106ce565b015190505f806102bc565b9250600184015f5260205f20905f935b601f198416851061078a576001945083601f19811610610772575b505050811b0160018201556102d3565b01515f1960f88460031b161c191690555f8080610762565b81810151835560209485019460019093019290910190610747565b015190505f80610261565b9250835f5260205f20905f935b601f19841685106107fd576001945083601f198116106107e5575b505050811b018155610275565b01515f1960f88460031b161c191690555f80806107d8565b818101518355602094850194600190930192909101906107bd565b634e487b7160e01b5f525f60045260245ffd5b5f80fd5b3461082b575f36600319011261082b57335f5260206002815260405f20604051908183825491828152019081925f52845f20905f5b868282106108b957868661087a8288038361135b565b60405192839281840190828552518091526040840192915f5b8281106108a257505050500390f35b835185528695509381019392810192600101610893565b835485529093019260019283019201610864565b3461082b5761096c6109156108e136611293565b906108ee5f548210611546565b805f52600160205261090560405f20548310611616565b5f52600160205260405f206115fd565b50600281015460048201549061098d60018060a01b036005850154169161093b8561137c565b9461097a61095760036109506001850161137c565b930161137c565b9160405198899860c08a5260c08a019061141d565b9088820360208a015261141d565b916040870152858203606087015261141d565b91608084015260a08301520390f35b3461082b57602036600319011261082b576109c46004356109bf5f548210611546565b6112d6565b50610a5760088201546109dc60ff8260a01c16611589565b610aa7600284015493610a99600482015491610a8b6109fa8261137c565b93610a076001840161137c565b98610a78610a176003860161137c565b91610a246005870161137c565b92610a65610a406007610a3960068b0161137c565b990161137c565b996040519e8f9e8f9261012080855284019061141d565b91602081840391015261141d565b9160408d01528b820360608d015261141d565b9160808a015288820360a08a015261141d565b9086820360c088015261141d565b9084820360e086015261141d565b6001600160a01b039091166101008301520390f35b3461082b57602036600319011261082b576004355f5481101561082b57610ae2906112d6565b50610aec8161137c565b610af86001830161137c565b60028301549092610b0b6003820161137c565b6004820154610b1c6005840161137c565b90610b296006850161137c565b92610b366007860161137c565b946008015495604051988998610140808b528a01610b539161141d565b89810360208b0152610b649161141d565b9060408901528781036060890152610b7b9161141d565b90608087015285810360a0870152610b929161141d565b84810360c0860152610ba39161141d565b83810360e0850152610bb49161141d565b90600160a01b60019003811661010084015260a01c60ff1615156101208301520390f35b3461082b5760a036600319011261082b576024356001600160401b03811161082b57610c089036906004016112a9565b6044356001600160401b03811161082b57610c279036906004016112a9565b92906084356001600160401b03811161082b57610c489036906004016112a9565b9091610c585f5460043510611546565b610c636004356112d6565b5092610c8c6008850154610c7c60ff8260a01c16611589565b6001600160a01b031633146115c5565b6004355f52600160205260405f2092604051978860c08101106001600160401b0360c08b01111761052657610cee93610cda9160c08b01604052610cd1368b8b61145b565b8b52369161145b565b60208901526064356040890152369161145b565b60608601524260808601523360a08601528054600160401b81101561052657610d1c916001820181556115fd565b9490946108185780518051906001600160401b038211610526578190610d4c82610d468a54611323565b8a6114dc565b602090601f8311600114610fd5575f92610fca575b50508160011b915f199060031b1c19161785555b60208101518051906001600160401b038211610526578190610da782610d9e60018b0154611323565b60018b016114dc565b602090601f8311600114610f5c575f92610f51575b50508160011b915f199060031b1c19161760018601555b6040810151600286015560608101519485516001600160401b03811161052657610e0d81610e046003850154611323565b600385016114dc565b6020601f8211600114610edf5790806005939260049798995f92610ed4575b50508160011b915f199060031b1c19161760038201555b608083015185820155019060a0600180821b03910151166bffffffffffffffffffffffff60a01b825416179055018054906001820180921161053a57556004355f52600160205260405f2054905f19820191821161053a577f47b642f2a7866eb84d17bb672cb8fd52277c12bb0e2570cfa78338140caa2f9b60405180610ecf3396600435958361151f565b0390a4005b015190508980610e2c565b600383015f5260205f20975f5b601f1984168110610f3957509160049697986001926005959483601f19811610610f21575b505050811b016003820155610e43565b01515f1960f88460031b161c19169055898080610f11565b828201518a5560019099019860209283019201610eec565b015190508780610dbc565b9250600188015f5260205f20905f935b601f1984168510610faf576001945083601f19811610610f97575b505050811b016001860155610dd3565b01515f1960f88460031b161c19169055878080610f87565b81810151835560209485019460019093019290910190610f6c565b015190508780610d61565b9250875f5260205f20905f935b601f1984168510611022576001945083601f1981161061100a575b505050811b018555610d75565b01515f1960f88460031b161c19169055878080610ffd565b81810151835560209485019460019093019290910190610fe2565b3461082b57602036600319011261082b5760043561105d5f548210611546565b5f526001602052602060405f2054604051908152f35b3461082b575f36600319011261082b5760205f54604051908152f35b3461082b57602036600319011261082b576004356110af5f548210611546565b60086110ba826112d6565b500180546110cd60ff8260a01c16611589565b6110e16001600160a01b03821633146115c5565b60ff60a01b1916905533907f45a55d99674f430f721902cd3d17a0d8fbda0933dca718c041f247662f10350b5f80a3005b3461082b5761112036611293565b61112c5f548310611546565b611135826112d6565b5060088101549061114b60ff8360a01c16611589565b6001600160a01b039161116190831633146115c5565b835f52600160205261117860405f20548410611616565b835f52600160205261118d8360405f206115fd565b5090600582019233908454160361125d576111a88254611323565b15801590611250575b611235575b506004816111ce6111c85f9454611323565b826114b6565b82815582600182016111e36111c88254611323565b5582600282015582600382016111fc6111c88254611323565b55015580546001600160a01b031916905533917f9f2196b5c7b05735494c25889975de0dfbc332e8c819eae659cbd64eba2ddfcc5f80a4005b60040180545f1981019290831161053a5791905560046111b6565b50600282015415156111b1565b60405162461bcd60e51b815260206004820152600e60248201526d2737ba103334b6329037bbb732b960911b6044820152606490fd5b604090600319011261082b576004359060243590565b9181601f8401121561082b578235916001600160401b03831161082b576020838186019501011161082b57565b905f91825481101561130f57600990838052027f290decd9548b62a8d60345a988386fc84ba6bc95484008f6362f93160ef3e563019190565b634e487b7160e01b83526032600452602483fd5b90600182811c92168015611351575b602083101461133d57565b634e487b7160e01b5f52602260045260245ffd5b91607f1691611332565b90601f801991011681019081106001600160401b0382111761052657604052565b9060405191825f82549261138f84611323565b9081845260019485811690815f146113fa57506001146113ba575b50506113b89250038361135b565b565b909391505f52602090815f20935f915b8183106113e25750506113b893508201015f806113aa565b855488840185015294850194879450918301916113ca565b9150506113b894506020925060ff191682840152151560051b8201015f806113aa565b91908251928382525f5b848110611447575050825f602080949584010152601f8019910116010190565b602081830181015184830182015201611427565b9291926001600160401b0382116105265760405191611484601f8201601f19166020018461135b565b82948184528183011161082b578281602093845f960137010152565b8181106114ab575050565b5f81556001016114a0565b90601f81116114c3575050565b6113b8915f52601f60205f20910160051c8101906114a0565b9190601f81116114eb57505050565b6113b8925f5260205f20906020601f840160051c83019310611515575b601f0160051c01906114a0565b9091508190611508565b90918060409360208452816020850152848401375f828201840152601f01601f1916010190565b1561154d57565b60405162461bcd60e51b815260206004820152601460248201527315985d5b1d08191bd95cc81b9bdd08195e1a5cdd60621b6044820152606490fd5b1561159057565b60405162461bcd60e51b815260206004820152600d60248201526c15985d5b1d0819195b195d1959609a1b6044820152606490fd5b156115cc57565b60405162461bcd60e51b81526020600482015260096024820152682737ba1037bbb732b960b91b6044820152606490fd5b8054821015610512575f52600660205f20910201905f90565b1561161d57565b60405162461bcd60e51b8152602060048201526009602482015268084c2c840d2dcc8caf60bb1b6044820152606490fdfea2646970667358221220aaf9ff093e8fdf308874bd6dcd31103fafdad59fe7690cb8a064830ca7acf64664736f6c63430008140033",
  "immutableReferences": {},
  "source": "// SPDX‑License‑Identifier: MIT\r\npragma solidity ^0.8.20;\r\n\r\n/**\r\n * @title VaultContract\r\n * @notice Users create vaults and register off‑chain files (by IPFS/AR CID).\r\n *         • Vaults and files are “soft‑deleted” (immutable chain data).\r\n *         • deleteFile() now properly decrements the vault’s file counter.\r\n */\r\ncontract VaultContract {\r\n    /* ───────── DATA STRUCTURES ───────── */\r\n\r\n    struct Vault {\r\n        string   name;\r\n        string   description;\r\n        uint256  size;             // total bytes currently used\r\n        string   encryptionLevel;\r\n        uint256  files;            // active file count  ✅ kept accurate\r\n        string   storageLimit;     // human‑readable (e.g., \"5GB\")\r\n        string   accessType;       // \"Private\" | \"Public\"\r\n        string   lastAccessed;\r\n        address  owner;\r\n        bool     exists;           // soft‑delete flag\r\n    }\r\n\r\n    struct File {\r\n        string   cid;              // empty string == deleted\r\n        string   name;\r\n        uint256  size;\r\n        string   mimeType;\r\n        uint256  uploadedAt;       // 0 == deleted\r\n        address  owner;            // address(0) == deleted\r\n    }\r\n\r\n    Vault[] public vaults;\r\n    mapping(uint => File[]) private vaultFiles;   // vaultId → files[]\r\n    mapping(address => uint[]) private ownerVaultIds;\r\n\r\n    /* ───────── EVENTS ───────── */\r\n    event VaultCreated (uint indexed id, string name, address indexed owner);\r\n    event VaultDeleted (uint indexed id, address indexed owner);\r\n    event FileUploaded (uint indexed vaultId, uint indexed fileIdx, string cid, address indexed uploader);\r\n    event FileDeleted (uint indexed vaultId, uint indexed fileIdx, address indexed deleter);\r\n\r\n    /* ───────── VAULT OPERATIONS ───────── */\r\n\r\n    function createVault(\r\n        string calldata _name,\r\n        string calldata _description,\r\n        uint256 _size,\r\n        string calldata _encryptionLevel,\r\n        uint256 _files,\r\n        string calldata _storageLimit,\r\n        string calldata _accessType,\r\n        string calldata _lastAccessed\r\n    ) external {\r\n        vaults.push(\r\n            Vault({\r\n                name:            _name,\r\n                description:     _description,\r\n                size:            _size,\r\n                encryptionLevel: _encryptionLevel,\r\n                files:           _files,\r\n                storageLimit:    _storageLimit,\r\n                accessType:      _accessType,\r\n                lastAccessed:    _lastAccessed,\r\n                owner:           msg.sender,\r\n                exists:          true\r\n            })\r\n        );\r\n\r\n        uint id = vaults.length - 1;\r\n        ownerVaultIds[msg.sender].push(id);\r\n        emit VaultCreated(id, _name, msg.sender);\r\n    }\r\n\r\n    function getVault(uint _id)\r\n        external\r\n        view\r\n        returns (\r\n            string  memory name,\r\n            string  memory description,\r\n            uint256        size,\r\n            string  memory encryptionLevel,\r\n            uint256        files,\r\n            string  memory storageLimit,\r\n            string  memory accessType,\r\n            string  memory lastAccessed,\r\n            address        owner\r\n        )\r\n    {\r\n        require(_id < vaults.length, \"Vault does not exist\");\r\n        Vault storage v = vaults[_id];\r\n        require(v.exists, \"Vault deleted\");\r\n        return (\r\n            v.name,\r\n            v.description,\r\n            v.size,\r\n            v.encryptionLevel,\r\n            v.files,\r\n            v.storageLimit,\r\n            v.accessType,\r\n            v.lastAccessed,\r\n            v.owner\r\n        );\r\n    }\r\n\r\n    function getVaultCount() external view returns (uint) {\r\n        return vaults.length;\r\n    }\r\n\r\n    function getMyVaultIds() external view returns (uint[] memory) {\r\n        return ownerVaultIds[msg.sender];\r\n    }\r\n\r\n    function deleteVault(uint _id) external {\r\n        require(_id < vaults.length, \"Vault does not exist\");\r\n        Vault storage v = vaults[_id];\r\n        require(v.exists, \"Vault deleted\");\r\n        require(v.owner == msg.sender, \"Not owner\");\r\n        v.exists = false;\r\n        emit VaultDeleted(_id, msg.sender);\r\n    }\r\n\r\n    /* ───────── FILE OPERATIONS ───────── */\r\n\r\n    function uploadFile(\r\n        uint    _vaultId,\r\n        string  calldata _cid,\r\n        string  calldata _name,\r\n        uint256 _size,\r\n        string  calldata _mime\r\n    ) external {\r\n        require(_vaultId < vaults.length, \"Vault does not exist\");\r\n        Vault storage v = vaults[_vaultId];\r\n        require(v.exists, \"Vault deleted\");\r\n        require(v.owner == msg.sender, \"Not owner\");\r\n\r\n        vaultFiles[_vaultId].push(\r\n            File({\r\n                cid:        _cid,\r\n                name:       _name,\r\n                size:       _size,\r\n                mimeType:   _mime,\r\n                uploadedAt: block.timestamp,\r\n                owner:      msg.sender\r\n            })\r\n        );\r\n        v.files += 1;                                 // increment ✅\r\n\r\n        emit FileUploaded(_vaultId, vaultFiles[_vaultId].length - 1, _cid, msg.sender);\r\n    }\r\n\r\n    /**\r\n     * @notice Soft‑delete a single file and decrement vault.files counter\r\n     *         only if the file was not already deleted.\r\n     */\r\n    function deleteFile(uint _vaultId, uint _fileIdx) external {\r\n        require(_vaultId < vaults.length, \"Vault does not exist\");\r\n        Vault storage v = vaults[_vaultId];\r\n        require(v.exists, \"Vault deleted\");\r\n        require(v.owner == msg.sender, \"Not owner\");\r\n        require(_fileIdx < vaultFiles[_vaultId].length, \"Bad index\");\r\n\r\n        File storage f = vaultFiles[_vaultId][_fileIdx];\r\n        require(f.owner == msg.sender, \"Not file owner\");\r\n\r\n        // Decrement once (ignore repeat calls)\r\n        if (bytes(f.cid).length > 0 || f.size > 0) {\r\n            v.files -= 1;\r\n        }\r\n\r\n        // Soft‑delete: blank out fields\r\n        f.cid        = \"\";\r\n        f.name       = \"\";\r\n        f.size       = 0;\r\n        f.mimeType   = \"\";\r\n        f.uploadedAt = 0;\r\n        f.owner      = address(0);\r\n\r\n        emit FileDeleted(_vaultId, _fileIdx, msg.sender);\r\n    }\r\n\r\n    function getFile(\r\n        uint _vaultId,\r\n        uint _fileIdx\r\n    )\r\n        external\r\n        view\r\n        returns (\r\n            string  memory cid,\r\n            string  memory name,\r\n            uint256        size,\r\n            string  memory mimeType,\r\n            uint256        uploadedAt,\r\n            address        owner\r\n        )\r\n    {\r\n        require(_vaultId < vaults.length, \"Vault does not exist\");\r\n        require(_fileIdx < vaultFiles[_vaultId].length, \"Bad index\");\r\n\r\n        File storage f = vaultFiles[_vaultId][_fileIdx];\r\n        return (f.cid, f.name, f.size, f.mimeType, f.uploadedAt, f.owner);\r\n    }\r\n\r\n    function getFileCount(uint _vaultId) external view returns (uint) {\r\n        require(_vaultId < vaults.length, \"Vault does not exist\");\r\n        return vaultFiles[_vaultId].length;\r\n    }\r\n}\r\n",
  "sourcePath": "C:\\Users\\vimal\\Desktop\\DVault\\server\\contracts\\VaultContract.sol",
  "compiler": {
    "name": "solc",
    "version": "0.8.20+commit.a1b79de6.Emscripten.clang"
  },
  "schemaVersion": "3.4.16",
  "updatedAt": "2025-07-04T06:02:10.020Z",
  "devdoc": {
    "kind": "dev",
    "methods": {},
    "title": "VaultContract",
    "version": 1
  },
  "userdoc": {
    "kind": "user",
    "methods": {
      "deleteFile(uint256,uint256)": {
        "notice": "Soft‑delete a single file and decrement vault.files counter         only if the file was not already deleted."
      }
    },
    "notice": "Users create vaults and register off‑chain files (by IPFS/AR CID).         • Vaults and files are “soft‑deleted” (immutable chain data).         • deleteFile() now properly decrements the vault’s file counter.",
    "version": 1
  }
}